:020000040800F2
:10000000000001207D120008351200083912000896
:100010003D120008411200084512000800000000CF
:10002000000000000000000000000000491200086D
:100030004D1200080000000051120008551200087F
:10004000C5120008C5120008C5120008C512000834
:10005000C5120008C5120008C5120008C512000824
:10006000C5120008C5120008C5120008C512000814
:10007000C5120008C5120008C5120008C512000804
:10008000C5120008C5120008C5120008C5120008F4
:10009000C5120008C5120008C5120008C5120008E4
:1000A000C5120008C5120008C5120008C5120008D4
:1000B000051B0008C5120008C5120008C51200087B
:1000C000C5120008C5120008C5120008C5120008B4
:1000D000C5120008C5120008C5120008C5120008A4
:1000E000C5120008C5120008C5120008C512000894
:1000F000C5120008C5120008C5120008C512000884
:10010000C5120008C5120008C5120008C512000873
:10011000C5120008C5120008C5120008C512000863
:10012000C5120008C5120008C5120008C512000853
:1001300000000000000000000000000000000000BF
:1001400000000000000000000000000000000000AF
:10015000000000000000000000000000000000009F
:10016000000000000000000000000000000000008F
:10017000000000000000000000000000000000007F
:10018000000000000000000000000000000000006F
:10019000000000000000000000000000000000005F
:1001A000000000000000000000000000000000004F
:1001B000000000000000000000000000000000003F
:1001C000000000000000000000000000000000002F
:1001D000000000000000000000000000000000001F
:0401E0005FF8E0F1F3
:1001E40010B5054C237833B9044B13B10448AFF36D
:1001F40000800123237010BD34040020000000009F
:100204009C1D000808B5034B1BB103490348AFF319
:10021400008008BD00000000380400209C1D000878
:1002240003685A004CBF43F0004323F000431844D2
:10023400704700BF2DE9F84339B34F1E04461546F5
:100244003E464FF0000808EB060101EBD17149105E
:1002540004EBC1094846FFF7E3FF0346C800083032
:100264008F4220440BD0AB420BD8FFF7D9FF0138A3
:10027400A84201F10108E6D34846BDE8F883AB4241
:10028400FAD9884501D04E1EDDE74FF000094846F3
:10029400BDE8F883012807D0022807D0044B0028C2
:1002A4000CBF184600207047024870470248704748
:1002B400890900088D0900089109000830B5244B0C
:1002C400044683B08D1E3BB3284601A9AFF30080DA
:1002D400E8B101992A46FFF7ADFF0146B8B1FFF72F
:1002E4009FFF4B68A064012B2ED0002B27DB081D39
:1002F400FFF796FF0023C4E913030368002B12DB06
:10030400FFF78EFF03460020236103B030BD0023B6
:100314000920236103B030BD0E4B0F491846C91A9A
:10032400C9100191D6E7C3F30360FFF7B3FF0028B8
:10033400034614BF00200920236103B030BD01230C
:10034400081DC4E91303D8E7002305202361DCE773
:1003540000000000081E0008301F0008036810B5E4
:10036400DA07044606D49B0700F1480009D500F0DB
:100374005DFC2368590709D51A070ED5DB0613D58A
:1003840010BD00F04BFC23685907F5D404F1D000EC
:1003940000F054FC23681A07F0D404F5A87000F0A8
:1003A40055FC2368DB06EBD404F5E870BDE8104087
:1003B40000F090BC092070470346006800B118445F
:1003C400704700BF704700BF70B504460E46204614
:1003D400316CFFF773FF054698B9D6F840C0324632
:1003E400214601202369C4F814C098470828EED098
:1003F400072806D12846316CFFF7E4FF301D00F0D2
:1004040001FC01F0B5FB00BF2DE9F0474FF0000AF5
:10041400ADF5727D0DF10C0E01F1040CC768D0F836
:10042400188006461446BCE80F00AEE80F00BCE88E
:100434000F00AEE80F00BCE80F00AEE80F009CE828
:100444000F0002AD8EE80F00C5F800A021E02B6C70
:100454004FF4F072294673617AA800F06FFE3146BA
:10046400504633697AAA9847889C82466C6433461E
:10047400324649460120CDE90058B8470446F0B950
:100484004FF4F07228467AA900F058FEBAF1080F2A
:100494001BD13046296CFFF711FF04F109095FFAFB
:1004A40089FA04460028D2D0A96B334669643246DF
:1004B4000120CDE900584AF01001B84700B10924E1
:1004C40020460DF5727DBDE8F087BAF1070FF6D12D
:1004D4002046296CFFF776FF03A800F093FB00BFCA
:1004E400406C7047F0B54FF0FF37CB6BF9B00B643D
:1004F40001AC01F1040C0E460546BCE80F000FC424
:10050400BCE80F000FC4BCE80F000FC49CE80F0048
:1005140084E80F00009706E06A4629462B6998474D
:100524000828044608D128461099FFF7C7FE00287A
:10053400F2D0092079B0F0BD6846FFF70FFF062C12
:10054400F7D131462846FFF73FFF00BF10B41446E9
:100554008461DC6BC16000221C64194610BC53E743
:1005640070B54369C6680B64AEB90A4603690446AC
:100574000D46014602209847072805D008280FD1C8
:1005840029462046FFF720FF3046296CFFF71AFF63
:10059400281D00F037FB0122FFF736FF01F0E8FACF
:1005A40001F0E6FAC2682AB1D1F83CC00022C1F8D1
:1005B40040C029E796E700BF704700BF8368014643
:1005C4000BB1012018477047012912D009D873B91B
:1005D4000F2A0CD800EB820042681846009B1A6070
:1005E40070470339012994BF01200220704702207B
:1005F40070470846704700BF002300B585B00A461F
:1006040003A900911946FFF7DFFF039805B05DF8D1
:1006140004FB00BF012912D009D873B90F2A0CD8E2
:10062400009900EB8202096818465160704703394B
:10063400012994BF01200220704702207047084618
:10064400704700BF002310B584B003AC039200943C
:100654000A461946FFF7DEFF04B010BD70B54FF02F
:10066400FF36D36BADF50E7D13640DF15C0E02F114
:10067400040C05460C46BCE80F00AEE80F00BCE8CD
:100684000F00AEE80F00BCE80F00AEE80F009CE8D6
:100694000F008EE80F00169612E00C2116A86A4689
:1006A400FFF7D0FF214616A8A84778B96946082065
:1006B400049B16AA98470528064608D0092805D0A1
:1006C40068462699FFF7FAFD0028E6D0092616A801
:1006D400FFF744FE30460DF50E7D70BD2DE9F04F59
:1006E4001E46CC6C89B054F8043B0D46174600F006
:1006F40003080694002E79D002228DF81C201A0CCF
:100704008DF81D201B04D2B2059304EB82042B6DDB
:10071400B8F1020F08BFAC6B13F001030CD03846DC
:1007240005A900F071FB18B9082009B0BDE8F08FE5
:10073400092009B0BDE8F08FD4F800A0BAF1000F89
:10074400EDD0019300F008030293022E4AD0B4F8CE
:1007540000A0B4F802900434AA6C0F21384629F0A2
:10076400010B9344FFF748FF834539D82AF001026F
:100774005A44824294BF002001204FEA490303F007
:1007840002030AF0010A43EA0A03012B49D0022BAF
:1007940032D0002BCCD1B8F1000F02D0002840F0A9
:1007A400CE800434D4F800A0BAF1000FCDD138467D
:1007B40005A900F029FB0028BAD1019B002BB3D076
:1007C4000F213846FFF718FF0E2102463846FFF77F
:1007D40039FF38460F216A4AFFF734FF0720A8E79C
:1007E4000020CAE7D4F804900834B5E71B02059347
:1007F4000323ADF81C308AE7236823F0004BB8F1DB
:10080400000F45D128B1029A002A5CD0BBF1000F39
:1008140074D0002B00DA04340BF1010B04EB8B04CD
:10082400C0E7B8F1000F19D1B0B163682268991C10
:100834004FEAD2723FF47CAF05F1580101330491C1
:1008440000F09180201DFFF7B7FD04AB0146284658
:10085400AFF3008000285CD10834A3E70D213846AB
:10086400D5F82090FFF7C8FE8145F5D1AB6A9C42CC
:10087400F2D12046FFF7D4FC0F2102463846FFF799
:10088400E1FE38462A460021FFF7DCFE072050E748
:100894000D213846D5F82090FFF7AEFE814501D0F2
:1008A4002368B6E7AB6A9C42FAD104230022C5E967
:1008B4000B23E318C5F828B06B632368002B5ADBBD
:1008C40001230193A8E705F15803CDF80C80914664
:1008D400B04604F1040A1E460EE050460496FFF7A3
:1008E4006BFD0022014604AB284609F101090AF117
:1008F400040AAFF30080E8B9D945EED10D2138469A
:10090400FFF77AFE0346049A0620C5E909242B6200
:100914000FE781460D213846FFF76EFEB9F1020F4D
:10092400286225D12B46049A43F82C2F6B620620AB
:10093400AC62FEE646462368DDF80C8069E7204693
:10094400FFF76EFC02460434AC6328461446AFF34A
:10095400008000283FF4ECAE384622460F21FFF712
:1009640071FE0720E5E60D213846FFF745FE2862B3
:10097400049B6B62DBE70BF1010004EB800079E779
:10098400000000000023A9E60123A7E60223A5E650
:100994002DE9F043064615461C46C3B0042900F26F
:1009A400B880DFE801F09C56B62D0300002C40F01F
:1009B400B080102A00F2AD800368D80600F1F180FF
:1009C40020AF384600F090F9012438460023B16B7B
:1009D40004FA03F22A4203F1010305D00A4652F84D
:1009E40004CB1146C0F800C0042B00F10400EFD181
:1009F4003846B16300F06EF9002043B0BDE8F083DF
:100A0400032C40F0868094B204EB1243102B4FEA7F
:100A140012457ED803681F0700F1CB8020AF38460B
:100A240000F036F9B26B07EBC50154B10B4601EB8C
:100A3400C401D01AE4001D5843F8045B8B42FAD178
:100A440022443846B26300F001F9002043B0BDE807
:100A5400F083012C4FEA124895B256D0052C58D198
:100A640008EB0509B9F1200F53D8B8F10F0F73D96A
:100A7400A946002D40F08480B36B65B320AF4FF0DE
:100A8400000907EBC807043F03EBC50553F8041B33
:100A9400AB4247F8041FF9D1B9F1000F0FD06F46EC
:100AA4004146102938BF102107EBC101843903EBFB
:100AB400C90553F8040BAB4241F8040FF9D1012CDA
:100AC4007FD0B8F10F0FB56342D9B9F1000F02D04E
:100AD400684600F0B3F8002043B0BDE8F083C4B921
:100AE40023460124826B371DA8B204FA03F10142A4
:100AF4001CBF52F8041B47F823100133102BF4D108
:100B040015F40050E7D1B26304E008EB0503102BA1
:100B140003D9022043B0BDE8F083B8F10F0FF8D831
:100B24003368DA0706D5304623F0030340F8483B20
:100B340000F078F820AF384600F074F8B36B002D5D
:100B44009DD11D4604353846B56300F067F8C2E709
:100B540020A800F06BF8B8E7B9F1100F3FD9A9F15C
:100B640010093368D90708D5304623F0010343F050
:100B7400020340F8483B00F05DF8B9F1000F31D0B2
:100B840033685A071FD4B8F10F0F24D96F46C8F140
:100B94001005384600F056F8002DB36B80DD20AF09
:100BA4006FE723F01003336006F5E87000F09CF85B
:100BB40006E723F00803036000F5A87000F068F866
:100BC4002CE720AFBEE7304623F0040340F8D03BC7
:100BD40000F038F8D7E720A800F02CF8D6E74FF05B
:100BE4000009BEE7B8F10F0F3FF646AF20AF384615
:100BF40000F020F8B36B002D7FF441AF384600F0CD
:100C040015F868E700F1340191E838009C46A646DF
:100C14004CF8045D90E8FF0FE54600BD90EC210B15
:100C2400704700BF80EC210B704700BF90EC200B95
:100C3400704700BF80EC200B704700BFD0EC200B46
:100C4400704700BFC0EC200B704700BFF0EC0201FE
:100C5400F0EC0211F0EC0221F0EC0231F0EC024174
:100C6400F0EC0251F0EC0261F0EC0271F0EC028164
:100C7400F0EC0291F0EC02A1F0EC02B1F0EC02C154
:100C8400F0EC02D1F0EC02E1F0EC02F1704700BFAD
:100C9400E0EC0201E0EC0211E0EC0221E0EC0231B4
:100CA400E0EC0241E0EC0251E0EC0261E0EC0271A4
:100CB400E0EC0281E0EC0291E0EC02A1E0EC02B194
:100CC400E0EC02C1E0EC02D1E0EC02E1E0EC02F184
:100CD400704700BFB0FC0181B0FC0191B0FC01A1E0
:100CE400B0FC01B1704700BFA0FC0181A0FC0191E0
:100CF400A0FC01A1A0FC01B1704700BFEC4600B507
:100D04002DE900502DE9FF1F4FF000032DE90C00E1
:100D140001A9FFF7E7FBDDF840E012B0704700BF20
:100D2400EC4600B52DE900502DE9FF1F4FF00003FC
:100D34002DE90C0001A9FFF713FCDDF840E012B027
:100D4400704700BFEC4600B52DE900502DE9FF1FA8
:100D54004FF000032DE90C0001A9FFF723FCDDF897
:100D640040E012B0704700BFEC4600B52DE90050DA
:100D74002DE9FF1F4FF000032DE90C0001ABFFF735
:100D8400E5FBDDF840E012B0704700BFEC4600B56B
:100D94002DE900502DE9FF1F4FF000032DE90C0051
:100DA40001AAFFF75BFCDDF840E012B0704700BF1A
:100DB400027A03467AB9427AA2B14FF0030C416831
:100DC400013A427208680A1D5A60020283F808C098
:100DD400000E1A6070470068013A1A7202021A6023
:100DE400000E7047B0207047002300B585B003A9FA
:100DF40000910C221946FFF7E7FB039805B05DF854
:100E040004FB00BFF0E700BF2DE9F0434FF00008FA
:100E140005460E4685B03046FFF7CAFFB0280446A3
:100E240000F0BA80070620D500F0F003802B4DD0E7
:100E3400902B36D0A02B60D0B02B73D0C02B00F0F9
:100E44008A8000F0F803D02B0BD100F007020132A6
:100E540005230121284642F40022FFF799FD0028CA
:100E6400D9D0092005B0BDE8F0838300DBB21F1D93
:100E740000230DF10C0919460D222846CDF80090E7
:100E8400FFF7A2FB039B60064CBFDF1BFF18002388
:100E94000D2228461946CDF800900397FFF7BAFBB8
:100EA400B9E700F00D030D2BDBD0002303AF194687
:100EB40000F00F0200972846FFF786FB00230D225F
:100EC400284619460097FFF7A5FBA4E73046FFF72D
:100ED4006FFF24022043B0F5004FC2D00023040169
:100EE40019462846A2B2FFF753FD0028B9D114F4DD
:100EF400004F18BF4FF001088DE7C3434FF47F62E2
:100F040003F007031A410023010702F47F6248BF7C
:100F140042F4804228461946FFF73AFD00283FF480
:100F24007AAF9EE7B1283CD0B22800F0B080B32855
:100F34004AD000F0FC03B42B93D0012300F0070245
:100F44001A442846194642F40022FFF721FD0028DE
:100F54003FF461AF85E7C6284FD0C72861D000F0C1
:100F6400F803C02B70D0C8287CD0C9287FF479AF8F
:100F74003046FFF71DFF05230246012128461403CE
:100F840002F00F0204F470240A442243FFF700FD28
:100F940000283FF440AF64E7B8F1000F1CD00020F4
:100FA40060E73046FFF704FF024600283FF459AFDC
:100FB40010F0F0037FF455AF19462846FFF7E8FC1C
:100FC40000283FF428AF4CE73046FFF7F1FE012339
:100FD400024619462846D2E703AC43460E22414650
:100FE40028460094FFF7F0FA43460F22284641466C
:100FF4000094FFF70FFB404634E73046FFF7D8FE76
:1010040002460323140302F00F0204F47024013295
:10101400284619462243FFF7BBFC00283FF4FBAEE9
:101024001FE73046FFF7C4FE024600283FF419AF1D
:1010340010F0F0037FF415AF04212846FFF7A8FC55
:1010440000283FF4E8AE0CE7032300F00F0201325E
:101054002846194642F42022FFF79AFC00283FF460
:10106400DAAEFEE63046FFF7A3FE0246012102F0A7
:10107400F00402F00F0210340A440523284642EA21
:101084000432FFF785FC00283FF4C5AEE9E60023EF
:101094000DF10C090D2219462846CDF80090FFF7F2
:1010A40093FA3046FFF784FE02064FF002040CD593
:1010B400039B00F07F00A040184403903046FFF7E4
:1010C40077FE030604F10704F2D4039B00F07F02C9
:1010D400A24003F501731A440023039228460D220B
:1010E4001946CDF80090FFF795FA94E60B464FF0B9
:1010F400030C00B5C26C1846536885B008320292DE
:1011040001A91A0E1B028DF80CC001938DF80D2055
:10111400FFF77AFE05B05DF804FB00BF08B5FFF7E2
:1011240071FE806C08BD00BF08B5FFF76BFEC06C94
:10113400C379023300EB830008BD00BF844641EA53
:10114400000313F0030349D1403A23D30B6803602F
:101154004B6843608B688360CB68C3600B69036131
:101164004B6943618B698361CB69C3610B6A036219
:101174004B6A43628B6A8362CB6AC3620B6B036301
:101184004B6B43638B6B8363CB6BC36340304031E6
:10119400403ADBD230320BD30B6803604B684360B8
:1011A4008B688360CB68C36010301031103AF3D27F
:1011B4000C3205D351F8043B40F8043B043AF9D20D
:1011C400043208D0D2071CBF11F8013B00F8013BE0
:1011D40001D30B8803806046704700BF082A13D3ED
:1011E4008B07B1D010F00303AED0C3F10403D21ABD
:1011F400DB071CBF11F8013B00F8013BA4D331F815
:10120400023B20F8023B9FE7043AD9D3013A11F894
:10121400013B00F8013BF9D20B7803704B78437023
:101224008B7883706046704708B500F07FFCFEE75A
:10123400704700BFFEE700BFFEE700BFFEE700BF48
:10124400FEE700BF704700BF704700BF704700BF94
:10125400704700BF0120704708B500F091FC1622CA
:1012640003464FF0FF301A6008BD00BF08B500F018
:1012740087FC16230360FEE70C480D490D4A002342
:1012840002E0D458C4500433C4188C42F9D30A4A37
:101294000A4C002301E013600432A242FBD300F0A5
:1012A40011F800F073FCFFF7BFFF70470000002047
:1012B40034040020401F000834040020700400207F
:1012C400FEE7000010B400204FF41F04394A3A4BE3
:1012D400116883B041F00101116051680B40536003
:1012E400136823F0847323F480331360136823F4A6
:1012F40080231360536823F4FE03536094600090CA
:101304000190136843F48033136003E0009BB3F54A
:10131400A06F09D0136803F400330193009B0133D9
:101324000093019B002BF1D0224B1B6813F4003374
:1013340018BF01230193019B012B06D04FF00062DB
:101344001E4B9A6003B010BC70471D4A194B1168BC
:1013540041F010011160116821F00301116011685E
:1013640041F0020111605A685A605A685A605A681A
:1013740042F480625A605A6822F47C125A605A68B5
:1013840042F4E8125A601A6842F080721A601A68CD
:101394009201FCD55968074A21F003015960596844
:1013A40041F002015960536803F00C03082BFAD191
:1013B400C4E700BF001002400000FFF800ED00E0A9
:1013C40000200240034B40F0BF6040F40030D8607E
:1013D400704700BF00ED00E0C37813B3174A30B57F
:1013E400D1684FF0010EC9430F23827890F801C0F1
:1013F4000078C1F3022100F01F040EFA04F4CB407C
:10140400C1F1040E13400CFA0EFC0D4D43EA0C031B
:101414001B012A18DBB2400982F8003345F820404A
:1014240030BD0121037806485A0903F01F03203216
:1014340001FA03F340F82230704700BF00ED00E0EA
:1014440000E100E000B591F803E01EF0100F18BFB2
:101454008B780EF00F0C18BF4CEA030C0B88DAB231
:10146400002A43D0BEF1480F026840F0C180D9077A
:1014740005D5012122F00F024CEA0202016199070D
:1014840005D5022122F0F00242EA0C12016159074B
:1014940005D5042122F4706242EA0C220161190785
:1014A40005D5082122F4704242EA0C320161D906C2
:1014B40005D5102122F4702242EA0C4201619906FA
:1014C40005D5202122F4700242EA0C52016159062A
:1014D40005D5402122F0706242EA0C6201611906CE
:1014E40003D580216CF31F7201610260FF2B4AD97E
:1014F400BEF1480F426848D1D90506D54FF4807132
:1015040022F00F024CEA02020161990506D54FF45C
:10151400007122F0F00242EA0C120161590506D56D
:101524004FF4806122F4706242EA0C2201611905D1
:1015340006D54FF4006122F4704242EA0C32016194
:10154400D90406D54FF4805122F4702242EA0C42A9
:101554000161990406D54FF4005122F4700242EA65
:101564000C520161590406D54FF4804122F0706297
:1015740042EA0C6201611B0404D54FF400436CF38E
:101584001F72036142605DF804FBBEF1280F00F096
:10159400A280D90544BF22F00F024CEA0202990549
:1015A40044BF22F0F00242EA0C12590544BF22F46F
:1015B400706242EA0C22190544BF22F4704242EAE6
:1015C4000C32D90444BF22F4702242EA0C4299043A
:1015D40044BF22F4700242EA0C52590444BF22F080
:1015E400706242EA0C621B04CCD56CF31F72C9E72B
:1015F400BEF1280F2FD0D90744BF22F00F024CEAC6
:101604000202990744BF22F0F00242EA0C12590781
:1016140044BF22F4706242EA0C22190744BF22F448
:10162400704242EA0C32D90644BF22F4702242EAE4
:101634000C42990644BF22F4700242EA0C52590645
:1016440044BF22F0706242EA0C6219067FF54DAF86
:101654006CF31F7249E7D90705D5012122F00F0267
:101664004CEA02024161990705D5022122F0F002F9
:1016740042EA0C124161590705D5042122F4706233
:1016840042EA0C224161190705D5082122F470426F
:1016940042EA0C324161D90605D5102122F47022A8
:1016A40042EA0C424161990605D5202122F47002D8
:1016B40042EA0C524161590605D5402122F070627C
:1016C40042EA0C62416119067FF50FAF80216CF389
:1016D4001F72416109E7D90506D54FF4807122F0E4
:1016E4000F024CEA02024161990506D54FF40071DC
:1016F40022F0F00242EA0C124161590506D54FF47A
:10170400806122F4706242EA0C224161190506D517
:101714004FF4006122F4704242EA0C324161D90470
:1017240006D54FF4805122F4702242EA0C42416102
:10173400990406D54FF4005122F4700242EA0C5287
:101744004161590406D54FF4804122F0706242EAA7
:101754000C6241611B047FF515AF4FF400436CF339
:101764001F7243610EE700BF8368194214BF012052
:1017740000207047C368194214BF0120002070473D
:101784000AB1016170474161704700BF044A93691F
:1017940011B118439061704723EA000090617047CB
:1017A40000100240044AD36911B11843D061704754
:1017B40023EA0000D061704700100240274A0388E2
:1017C40090429BB212D002F5006290420ED0B0F16A
:1017D400804F0BD0A2F59832904207D002F5806278
:1017E400904203D002F58062904203D14A8823F0EC
:1017F400700313431A4A904217D002F58062904254
:1018040013D0CA8823F440739BB21343B1F804C0C5
:101814000380124B0A889842A0F82CC002850CD190
:101824000B7A038601238382704703808B88838528
:101834000B8803850123838270470A4B9842EFD0BB
:1018440003F540639842EBD003F580639842E7D0F8
:1018540003F580639842E3D0ECE700BF002C01401D
:101864000010004000340140038821B19BB243F0D2
:1018740001030380704723F001031B041B0C038046
:10188400704700BF83899BB212B1194381817047AD
:1018940023EA010181817047038923F007031B04B4
:1018A4001B0C0381704700BF038A828911EA03007D
:1018B40092B203D00A4214BF01200020704700BF37
:1018C400C94389B20182704710B50446054B0648E6
:1018D400C4E9003000F0C8F860682146FFF7B2FDA3
:1018E400204610BD010003100008014038B5002354
:1018F4000446036008460D4600F0B0F9831E012B30
:1019040015D82A78A2F14103412A4FEA832310D043
:1019140023F40062B2F5806F0BD023F48052B2F549
:10192400006F06D023F48062B2F5805F01D02046B8
:1019340038BD02281CD06A78A978303A02EB8202BA
:10194400303901EB420101228A40002AEFD041F2F2
:10195400030103F1804000F58430606022806180DF
:1019640000F082F860682146FFF76CFD204638BD20
:101974000122697830398A40E7E700BF08B50B4691
:101984001C2B014607D9282B0BD14868CB70FFF7D5
:1019940059FD002008BD044ADA40D207F5D40120DD
:1019A40008BD482BF1D0FAE71100111108B5C3782E
:1019B400DB0601D5012901D9012008BD0A460188A9
:1019C4004068FFF7DDFE002008BD00BFC378018832
:1019D400DB06406801D4FFF7C7BEFFF7CBBE00BFEC
:1019E40070B5044615460E46FFF76EFF96E80300F1
:1019F400002384E80300237248212046FFF7BEFF3A
:101A040025722DB128212046FFF7B8FF204670BD6E
:101A140048212046FFF7B2FF204670BD38B5044682
:101A24000D46FFF751FF95E80300002384E8030007
:101A3400237210212046FFF7A1FF217A204681F06E
:101A44000101FFF7B3FF204638BD00BF10B50446BF
:101A5400FFF7BCFF0146B1FA81F12046BDE8104012
:101A64004909FFF7A3BF00BF0121C0F3852001FA94
:101A740000F0FFF78BBE00BF4FF0000C10B5B1F1C2
:101A8400804F044682B0828001600381A0F80AC0BE
:101A9400A0F806C080F80CC002D0204602B010BDE9
:101AA40001210846FFF77EFE2068FFF7F5FE214678
:101AB40051F8040BFFF782FE012220681146FFF75C
:101AC400E1FE4FF4A060FFF77DFC064B01A80193F3
:101AD400FFF782FC20680121FFF7C6FE204602B012
:101AE40010BD00BF1C02010100B585B042F20F73A6
:101AF40041F63F124FF080416846FFF7BDFFFEE715
:101B040001214FF0804008B5FFF7CEFE012800D038
:101B140008BD01464FF08040FFF7D2FEBDE8084003
:101B24000148FFF793BF00BF5C04002008B5FFF72E
:101B3400DBFF00BF00B583B068460949FFF7D6FE56
:101B440069460848FFF76AFF68460749FFF7CEFE73
:101B5400012269460548FFF743FF03B05DF804FB23
:101B6400B41D00085C040020B81D000850040020C7
:101B7400062008B500F02EF80120FFF777FB00BF20
:101B8400014B1868704700BF0000002070B50D4E6F
:101B94000D4D761BB61006D0002455F8043B0134D5
:101BA4009847A642F9D1094E094D00F0F5F8761B85
:101BB400B61006D0002455F8043B01349847A642D9
:101BC400F9D170BD301F0008301F00083C1F000809
:101BD400301F000838B5154B1F281D6820D8D5F8CC
:101BE400DC22044662B152F820304BB1012B15D0EF
:101BF400591C0FD0002542F820509847284638BD7C
:101C0400284600F029F8224601462846BDE8384017
:101C140000F00EB8162301202B6038BD002038BD1B
:101C240016234FF0FF302B6038BD00BF00000020AA
:101C340070B50026074D0446084611462E60FFF78E
:101C44000BFB431C00D070BD2B68002BFBD0236022
:101C540070BD00BF6C040020FFF7FCBA20F0030144
:101C640010F00300C0F1000051F8043B00F1040C33
:101C74004FEACC0C6FF000021CBF22FA0CF21343A3
:101C84004FF0010C4CEA0C2C4CEA0C4CA3EB0C026C
:101C940022EA030212EACC1204BF51F8043B0430D6
:101CA400F4D0C2F1000102EA0102B2FA82F2C2F1F6
:101CB4001F0200EBD2007047024B13B1024800F040
:101CC40005B8704700000000DD1C00080023014631
:101CD4001A46184600F01AB838B5084B084D5B1B75
:101CE4009C1007D0043B1D44013C55F80439984727
:101CF400002CF9D1BDE8384000F054B8401F00086A
:101D04003C1F0008704700BF704700BF2DE9F04733
:101D1400DFF87CA00646DAF8000098460F469146A4
:101D2400FFF7F0FF1B4B1B68D3F8484124B36568E9
:101D34001F2D26DC5EB96B1C0235DAF800006360E7
:101D440044F82570FFF7E0FF0020BDE8F087012389
:101D540004EB8501C1F88890D4F88821AB401A437C
:101D6400022EC4F88821C1F80881E4D1D4F88C216A
:101D74001343C4F88C31DEE703F5A674C3F8484175
:101D8400D5E7DAF80000FFF7BFFF4FF0FF30DCE7DC
:101D940030040020BC1D0008F8B500BFF8BC08BC26
:101DA4009E467047F8B500BFF8BC08BC9E46704715
:0C1DB400423000004331330008000020E2
:101DC00008B10181B0B000840000000008B10181B9
:101DD000B0B000840000000008B10181B0B0008400
:101DE0000000000008B10181B0B0008400000000D4
:101DF00008B10181B0B000840000000008B1018189
:081E0000B0B0008400000000F6
:101E08001CE4FF7F01000000B0E4FF7FB0A902805E
:101E180048E5FF7FB0B0A88098E5FF7F010000008B
:101E2800A4E5FF7FB0B0AA80DCE5FF7FAE71B28089
:101E3800ACE6FF7F01000000A8E6FF7FAB3F3880DB
:101E480008E7FF7F0100000014E7FF7FB0B0AA8019
:101E580050E7FF7F0100000000E8FF7FAA0DB28075
:101E680078E8FF7FB0AF088018EBFF7F0100000023
:101E78001CEBFF7FAD3F028088EDFF7F0100000073
:101E880064EFFF7F0084048078EFFF7F010000008B
:101E980074EFFF7FB0AD048050F2FF7F00840480B0
:101EA80078F2FF7F44FFFF7F7CF2FF7F48FFFF7FD0
:101EB80088F2FF7F010000000CFAFF7FB0B0A88015
:101EC80028FAFF7FA908B180B0FAFF7FECFEFF7FF8
:101ED800D8FAFF7FF0FEFF7FF0FAFF7F01000000D5
:101EE800FCFAFF7FB0B0AA8030FBFF7FA908B18061
:101EF80058FBFF7FB0B0A8806CFBFF7F010000009B
:101F080074FBFF7FB0A80180DCFBFF7F00840480A6
:101F1800ECFBFF7FBCFEFF7F10FCFF7FC0FEFF7F56
:081F280010FCFF7F0100000026
:0C1F3000BD1C000809020008391B000855
:041F3C00E5010008B3
:101F4000080000200000000000000000F402002053
:101F50005C030020C403002000000000000000001B
:101F60000000000000000000000000000000000071
:101F70000000000000000000000000000000000061
:101F80000000000000000000000000000000000051
:101F90000000000000000000000000000000000041
:101FA0000000000000000000000000000000000031
:101FB0000000000000000000000000000000000021
:101FC0000000000000000000000000000000000011
:101FD0000000000000000000000000000000000001
:101FE00000000000000000000000000000000000F1
:101FF00001000000000000000E33CDAB34126DE68E
:10200000ECDE05000B0000000000000000000000F6
:1020100000000000000000000000000000000000C0
:1020200000000000000000000000000000000000B0
:1020300000000000000000000000000000000000A0
:102040000000000000000000000000000000000090
:0423700068040020DD
:040000050800127D60
:00000001FF
